:10000000743811AD740E11AD740111AD740611ADDB
:100010007590FF75B000E590547FB47FF675B00021
:10002000E590547FB47F0280F475B0FEE590547F74
:10003000B47F3C75B0FDE590547FB47F3775B0FB5D
:10004000E590547FB47F3275B0F7E590547FB47F6C
:100050002D75B0EFE590547FB47F2875B0DFE59043
:10006000547FB47F2375B0BFE590547FB47F1E905A
:100070000300801E900307801990030E80149003E4
:1000800015800F90031C800A900323800590032A9B
:1000900080007807135006A3D8F80200137480116B
:1000A000ADE49311B802032B7F10DFFE22F5A0C24E
:1000B00082C281D280C28022F5A0D282C281D28047
:0300C000C28022D9
:100300006162636465666768696A6B6C6D6E6F7065
:100310007172737475767778797A30010203040507
:0B03200006070809402324255E267212
:00000001FF
